:020000040800F2
:100000000000082045410108C9020008CD0200088F
:10001000D1020008D5020008D90200080000000043
:10002000000000000000000000000000DD020008E9
:10003000E102000800000000E5020008E9020008F3
:100040009541010895410108954101089541010834
:100050009541010895410108A90B01089541010846
:100060009541010895410108954101089541010814
:100070009541010895410108954101089541010804
:1000800095410108954101089541010895410108F4
:1000900095410108954101089541010895410108E4
:1000A00095410108954101089541010895410108D4
:1000B00095410108954101089541010895410108C4
:1000C00095410108954101089541010895410108B4
:1000D00095410108CD0D01089541010895410108A0
:1000E0009541010895410108954101089541010894
:1000F0009541010895410108954101089541010884
:100100009541010895410108954101089541010873
:100110009541010895410108954101089541010863
:100120009541010895410108850D01089541010897
:100130009541010895410108954101089541010843
:1001400095410108954101089541010831160108C2
:100150009541010895410108950D01089541010857
:100160009541010895410108954101089541010813
:1001700095410108954101089541010800000000E2
:1001800095410108954101089541010895410108F3
:1001900095410108954101089541010895410108E3
:1001A0000000000000000000954101089541010891
:1001B00095410108954101089541010895410108C3
:1001C0009541010895410108000000009541010892
:1001D00095410108954101089541010895410108A3
:1001E0009541010895410108954101089541010893
:0801F000000000009541010828
:1001F80010B5054C237833B9044B13B10448AFF359
:1002080000800123237010BD6C090020000000004D
:10021800744E0108084B10B51BB108480849AFF3E4
:1002280000800848036803B910BD074B002BFBD0BA
:10023800BDE81040184700BF00000000744E0108D8
:10024800700900206809002000000000154B002BF1
:1002580008BF134B9D46A3F5803A00218B460F46F5
:100268001348144A121A13F07FFD0F4B002B00D0CD
:1002780098470E4B002B00D098470020002104001F
:100288000D000D48002802D00C4813F02FFE13F083
:1002980043FD2000290013F097FE13F02DFD00BF49
:1002A800000008000000000000000000000000003E
:1002B8006C09002034120020F53E0108013F0108B6
:1002C800704700BFFEE700BFFEE700BFFEE700BFC4
:1002D800FEE700BF704700BF704700BF704700BF10
:1002E80000F0A4B80D4B0E481A68002142F0010234
:1002F80010B41A6099601A680A4C22F0847222F4C9
:1003080080321A605C601A684FF0006422F4802220
:100318001A60D96084605DF8044B70470038024069
:1003280000ED00E0103000241848836803F00C0347
:10033800042B29D0082B0AD0154B144A154892686B
:100348001549C2F30312825CD3400B6070474368BF
:10035800416813F4800F436818BF104801F03F024A
:100368000CBF0B49B0FBF2F1C3F3881308BFB1FB14
:10037800F2F101FB03F2054B5B68C3F30143013360
:100388005B00B2FBF3F3D8E7044BD6E70038024032
:100398000024F400904E01080400002000127A00A6
:1003A800704700BF704700BF704700BF704700BF6D
:1003B80010B5094B4FF0FF3200241A621C625A62D2
:1003C8005C621A611C615A615C619A619C61FFF709
:1003D800E9FF204610BD00BF00380240084B094A1B
:1003E8001B6810B5A2FB03230446980901F0EAFB39
:1003F80021464FF0FF30002201F084FB002010BDA1
:1004080004000020D34D6210074A08B5136843F46E
:1004180000731360032001F063FB0F20FFF7DEFF7A
:10042800FFF7BEFF002008BD003C0240024A1368E7
:1004380001331360704700BF8C0A0020014B186815
:10044800704700BF8C0A002010B582B00190FFF7FA
:10045800F5FF0446FFF7F2FF019B001B9842F9D312
:1004680002B010BD024A136823F0020313607047FC
:1004780010E000E0024A136843F00203136070477B
:1004880010E000E00048704700020201014B1868C4
:10049800000C7047002004E0024B1868C0F30B0002
:1004A800704700BF002004E0024A536843F001038C
:1004B80053607047002004E0024A536823F00103A8
:1004C80053607047002004E0024A536843F0020377
:1004D80053607047002004E0024A536823F0020387
:1004E80053607047002004E0024A536843F0040355
:1004F80053607047002004E0024A536823F0040365
:1005080053607047002004E0024A136A43F0010375
:100518001362704700380140024A136A23F001034E
:100528001362704700380140024A136843F480633D
:100538001360704700380140024A136823F440638F
:100548001360704700380140024A136843F480730F
:100558001360704700380140024A136823F480731F
:100568001360704700380140704700BF002800F052
:10057800A980F8B5036C04463BB1236CDB060CD5A7
:100588000023012084F83C30F8BD436480F83C30F7
:10059800FFF7EAFF236CDB06F2D4226C4A49236892
:1005A8004A4D22F4885222F0020242F002022264EA
:1005B8004A6822F440324A604868626802434A60E6
:1005C8005F68A26A04F1080090E8034027F4807786
:1005D8005F605E6846EA0E265E605E6826F04076DA
:1005E8005E605E6830435860986820F400609860E8
:1005F8009868AA4241EA0001996046D09868E16A81
:1006080020F070609860986802439A609A6822F0B7
:1006180040529A609A680A439A609968A569206A64
:1006280021F0020199609A6842EA45029A605A6884
:10063800002833D122F400625A60DA6AE069276B35
:10064800666922F47002DA62DD6A013845EA005010
:10065800D862986820F400709860996841EA472148
:100668009960996821F4806199609A68002042EA4B
:1006780086229A606064236C23F0030343F001032D
:100688002364002384F83C30F8BD9A6822F0706235
:100698009A609A6822F040529A60BEE742F400627B
:1006A8005A605A6822F460425A604FF4604191FAE5
:1006B800A1F1626A5868B1FA81F1013A8A400243AD
:1006C8005A60BAE701207047002301400100000F7B
:1006D800704700BFD0B1026C38B542F0020203681F
:1006E80002649A6822F001029A609B6813F001057F
:1006F800044603D0002084F83C0038BDFFF7E8FF2B
:100708000020656484F83C00256438BD01207047EA
:1007180010B490F83C3083B00022012B019255D0E0
:10072800026893680121DB0780F83C1014D42C4B35
:100738002C4C1B689168A4FB03439B0C03EB4303FD
:1007480041F0010191600193019B2BB1019B013B99
:100758000193019B002BF9D19368DC0731D5036C19
:1007680023F4E06323F0010343F4807303645368C4
:10077800590505D5036C23F4405343F480530364AF
:10078800036C13F480531CBF436C23F006034364CB
:1007980000246FF02201144B80F83C4011605B6824
:1007A800DB060BD1906810F040500AD1936843F0F3
:1007B8008043936003B05DF8044B70470B4B9A423B
:1007C80009D0002003B05DF8044B7047022003B045
:1007D8005DF8044B7047936813F04050E6D0F0E79B
:1007E8000400002083DE1B43002301400020014059
:1007F80090F83C30012B16D003689A68012122F04A
:10080800010280F83C109A609B68DB0706D4036CF1
:1008180023F4885323F001030B430364002380F877
:100828003C30184670470220704700BF03689A683A
:1008380070B5550502D59B68DC053DD40C460546C8
:10084800FFF7FCFD06462A6801E0601C25D1136805
:100858009907FAD56FF0120313602B6C43F40073F9
:100868002B64936813F0405F15D1AB699BB9D36AC9
:1008780013F4700F0CD12B6C23F480732B642B6C46
:1008880013F4805007D12B6C43F001032B6470BD27
:1008980093685B05EFD5002070BD24B1FFF7CEFD4E
:1008A800801B8442CFD22B6C002243F004032B64BC
:1008B80085F83C20032070BD036C002243F0200320
:1008C800036480F83C20012070BD00BFF8B50646DF
:1008D8000C461546FFF7B2FD0746316801E06B1C70
:1008E80012D10B682340A342F9D1012C336C1AD0E2
:1008F80043F480633364736C6FF0200243F00203A7
:10090800736400200A60F8BD25B1FFF797FDC01B8E
:100918008542E2D2336C002243F00403336486F844
:100928003C200320F8BD6FF0010243F480333364A8
:1009380000200A60F8BD00BF10B490F83C3083B0C6
:100948000022012B01925BD0026893680121DB072A
:1009580080F83C1014D42F4B2F4C1B689168A4FBD3
:1009680003439B0C03EB430341F0010191600193A6
:10097800019B2BB1019B013B0193019B002BF9D1FA
:100988009368DC0737D5036C23F4E06323F0010395
:1009980043F4807303645368590505D5036C23F445
:1009A800405343F480530364036C13F480531CBF17
:1009B800436C23F00603436400216FF0220380F8A0
:1009C8003C1013605368154943F0806343F02003DB
:1009D80053604B68DB060BD1906810F040500AD189
:1009E800936843F08043936003B05DF8044B70470D
:1009F8000B4B9A4209D0002003B05DF8044B7047B6
:100A0800022003B05DF8044B7047936813F0405020
:100A1800E6D0F0E70400002083DE1B4300230140FA
:100A28000020014090F83C30012B1CD003689A68E4
:100A3800012122F0010280F83C109A609A68D207DE
:100A48000CD45A6822F0806222F020025A60036CAB
:100A580023F4885323F001030B430364002380F835
:100A68003C30184670470220704700BFF0B590F838
:100A78003C3083B00024012B01946BD00568AB682F
:100A88000124DF0780F83C4014D4384B384E1C68EA
:100A9800AB68A6FB0464A40C43F0010304EB440414
:100AA800AB600194019B2BB1019C013C0194019C1A
:100AB800002CF9D1AB68DE0749D5046C24F4E06456
:100AC80024F0010444F4807404646B685C0505D563
:100AD800036C23F4405343F480530364036CDFF83E
:100AE800A4E0244C244F13F480531CBF436C23F020
:100AF800060343640646806B13464FF0000C0A4613
:100B08006FF0220186F83CC0C464C0F83CE007647A
:100B180029606C6844F080646C60AC6844F480744C
:100B2800AC6005F14C0105F033FC144B5B68DB0647
:100B380009D13368986810F0405008D19A6842F09B
:100B480080429A6004E032680D4B9A4205D000203A
:100B580003B0F0BD022003B0F0BD936813F040501D
:100B6800F5D1936843F080439360F1E704000020D7
:100B780083DE1B43A10D0008610C0008002301401F
:100B880000200140FD0B000890F83C30012B11D0EB
:100B980003689A68012122F0010210B580F83C1020
:100BA8009A609A68D207044606D50023002084F884
:100BB8003C3010BD022070479A68806B22F4807226
:100BC8009A6005F027FC2268536823F0806353601D
:100BD800236C23F4885323F0010343F001032364B7
:100BE800002384F83C3010BD0368D86C704700BF00
:100BF800704700BF836B1A6C12F0500F22D11A6C29
:100C0800196842F4007210B51A648A6812F0405FDD
:100C180014D19A6992B9CA6A12F4700F15D14A6848
:100C280022F020024A601A6C22F480721A641A6C4C
:100C3800D20403D41A6C42F001021A641846FFF772
:100C4800D7FF10BD9B6BDB6C18478A685005F5D43D
:100C5800E5E700BF704700BF08B5806BFFF7FAFFF4
:100C680008BD00BF704700BF704700BF38B50368B4
:100C78001A6859680446900701D58A0653D41A6839
:100C88005968520701D50D061BD41A685968D00750
:100C980001D54A0606D41A685968900601D54A0152
:100CA80069D438BD1A68D507F5D5236C43F4803369
:100CB80023642046FFF7D6FF23686FF001021A600D
:100CC800E9E7226CD00603D4226C42F40052226475
:100CD8009A6812F4401F1ED19A6B12F4401F02D07A
:100CE8009A68510517D45A68520514D49A6812F0B4
:100CF800405F10D1A26972B95A6822F080025A6026
:100D0800236C23F480532364236CDD0503D4236C04
:100D180043F001032364204600F0CCFB23686FF006
:100D28000C021A60B1E7226CD50603D4226C42F497
:100D3800007222649A6812F0405F14D1A26992B9D5
:100D4800DA6A12F4700F23D15A6822F020025A602E
:100D5800236C23F480732364236CD90403D4236C99
:100D680043F0010323642046FFF742FF23686FF036
:100D780012021A6083E7626C6FF0200542F00202EB
:100D8800626420461D60FFF76FFF23681D6038BD51
:100D98009A685005E7D4D7E7806B08B54023036409
:100DA800436C43F004034364FFF75EFF08BD00BFD4
:100DB800F0B590F83C3083B00022012B019255D059
:100DC8000D680123092D80F83C3027D803688A680C
:100DD8001E6905EB45070724BC4026EA04041C618C
:100DE8001C69BA4022431A612C464A68062A2DD843
:100DF80002EB82025E6B053A1F21914026EA01014F
:100E08005963596B94400C435C63394A93423CD014
:100E1800002380F83C30184603B0F0BD0368DFF8C3
:100E2800D4E0DF68ACB204EB44021E3A07269640D1
:100E380027EA06067545DE6034D08F68DE6897407D
:100E480047EA0602DA604A68062AD1D90C2A02EB78
:100E580082020ED81E6B233A1F21914026EA010117
:100E68001963196B94400C431C63CEE7022003B04E
:100E7800F0BDDE6A413A1F21914026EA0101D9629C
:100E8800D96A94400C43DC62BFE7122D29D0194B74
:100E98009D420DD0112DBBD1174A536843F400036E
:100EA8005360B5E7DA688E6842EA0662DA609CE762
:100EB8001149124B4A68124C42F400024A601B68FE
:100EC800A4FB03239B0C03EB83035B000193019BAF
:100ED800002B9DD0019B013B0193019B002BF9D175
:100EE80096E7D2F8043343F48003C2F804338FE75B
:100EF80000200140120000100023014004000020DF
:100F080083DE1B4390F83C30012B024629D00B6945
:100F1800012083421368F0B482F83C0058680CBF83
:100F280040F0400020F04000586058688D898E6875
:100F380091E8900020F4400121F40071596058684C
:100F4800204358605F629E62586820F01F00586016
:100F58005968002429432046596082F83C40F0BC77
:100F680070470220704700BF006C7047406C7047A4
:100F7800806B40230364436C43F004034364FFF72E
:100F880073BE00BF806BFFF765BE00BF836B1A6C32
:100F980012F0500F20D11A6C196842F400721A64CA
:100FA8008A6812F0405F14D19A6992B9CA6A12F439
:100FB800700F14D14A6822F020024A601A6C22F499
:100FC80080721A641A6CD20403D41A6C42F00102BB
:100FD8001A641846FFF70CBE9B6BDB6C18478A68CF
:100FE8005005F6D4E6E700BF10B490F83C3083B063
:100FF8000022012B01924CD0026893680121DC0782
:1010080080F83C1014D4294B294C1B689168A4FB28
:1010180003439B0C03EB430341F0010191600193EF
:10102800019B2BB1019B013B0193019B002BF9D143
:101038009368D90728D5036C23F4405323F00103A0
:1010480043F480530364036C13F4807308BF436450
:1010580000246FF00401174B80F83C4011605B6876
:10106800DB060CD19368506813F4401F0CD110F4C0
:10107800806009D1936843F48003936005E00E49CA
:10108800906853688A4209D0002003B05DF8044B89
:101098007047022003B05DF8044B704710F4401FFE
:1010A800F2D113F48060E5D0EEE700BF0400002021
:1010B80083DE1B43002301400020014010B490F858
:1010C8003C3083B00022012B019250D00268936813
:1010D8000121DC0780F83C1014D42B4B2B4C1B68E7
:1010E8009168A4FB03439B0C03EB430341F001010C
:1010F80091600193019B2BB1019B013B0193019BE3
:10110800002BF9D19368D9072CD5036C23F44053ED
:1011180023F0010343F480530364036C13F48073D6
:1011280008BF436400216FF0040380F83C1013608B
:101138005368174943F0800353604B68DB060CD1B2
:101148009368506813F4401F0CD110F4806009D1E3
:10115800936843F48003936005E00E4990685368F0
:101168008A4209D0002003B05DF8044B7047022082
:1011780003B05DF8044B704710F4401FF2D113F42C
:101188008060E5D0EEE700BF0400002083DE1B434B
:10119800002301400020014090F83C20012A03462A
:1011A80025D0026C0121D20580F83C1008D51A6CB4
:1011B80042F020021A640120002283F83C20704784
:1011C8000268506810F48060F1D1916821F0010143
:1011D8009160926812F00102EED1196C21F48851E5
:1011E80021F0010141F0010110461964E4E70220F1
:1011F800704700BF70B505460C46FFF71FF9064655
:101208002A6801E0631C27D113685807FAD56FF0E4
:101218000C0313602B6C43F400532B64936813F492
:10122800401F29D1936B13F4401F22D153685B05EB
:1012380022D4936813F0405F1ED1AB69E3B92B6CDD
:1012480023F480532B642B6C13F4807014D12B6C13
:1012580043F001032B6470BD24B1FFF7EFF8801B46
:101268008442CDD2042200232A6485F83C3003202E
:1012780070BD93685905D9D5002070BD90F83C2001
:10128800012A034629D0026C0121D20580F83C10BE
:1012980008D51A6C42F020021A640120002283F853
:1012A8003C2070470268506810F48060F1D1916862
:1012B80021F001019160916811F00101EED15068AF
:1012C80020F0800050601A6C22F4885222F001024B
:1012D80042F0010208461A64E0E70220704700BFA6
:1012E800036882B000206FF00402013901901A608F
:1012F800032905D8DFE801F0110C02075B6C0193A4
:10130800019802B070479B6C0193019802B0704736
:101318001B6C0193019802B07047DB6B0193019835
:1013280002B070472DE9F04190F83C3082B00024BB
:10133800012B01946BD00568AB680124DE0780F8A7
:101348003C4014D4374B384E1C68AB68A6FB046489
:10135800A40C43F0010304EB4404AB600194019B2B
:101368002BB1019C013C0194019C002CF9D1AB6884
:10137800DC0748D5046C24F4E06424F0010444F448
:10138800807404646B685B0505D5036C23F44053D3
:1013980043F480530364036C866BDFF89CC0DFF86A
:1013A8009CE0224F046B13F480531CBF436C23F062
:1013B800060343644FF000086FF0020380F83C8096
:1013C800C6F83CC0C6F840E0F7642B606B6843F091
:1013D80080636B60FCB9164C636823F40053636048
:1013E8000446134630460A46124904F0D1FF2368E2
:1013F800986810F0405006D19A6842F080429A608E
:1014080002B0BDE8F081002002B0BDE8F081022002
:1014180002B0BDE8F081064C636843F40053636092
:10142800DEE700BF0400002083DE1B43790F0008BD
:101438000023014008230140950F00088D0F000884
:1014480090F83C30012B11D003689A68012122F0F2
:10145800010210B580F83C109A609B68DB070446CF
:1014680006D50023002084F83C3010BD02207047C8
:101478000C4A806B536823F40053536004F0CAFF8E
:101488002268536823F080635360236C23F48853E5
:1014980023F0010343F001032364002384F83C3064
:1014A80010BD00BF00230140014B9868704700BF82
:1014B80000230140704700BF90F83C30012B00F03A
:1014C8008D802DE9F0430D680123092D2C4680F805
:1014D8003C306FD803688A681F6905EB450E0726FC
:1014E80006FA0EF627EA06061E611E6902FA0EF2D1
:1014F80032431A619A6BD1F810804E68CF69DFF8D1
:1015080080E122F440129A63D3F838C008F1FF3919
:10151800F21C4CEA095CC8EB0202C3F838C0D2B22C
:10152800D3F8388002EB82024FF01F0C0CFA02FC51
:1015380028EA0C0CC3F838C0D3F838C0944044EA01
:101548000C0477459C636CD09C680A6A24F4702468
:101558009C609C6827439F609C6824F440149C60AE
:101568009C6822439A608A69002A4AD05A6842F4E1
:1015780080625A604A69002A32D05A68022E42F4C0
:1015880080525A6032D0032E54D0012E3ED01A6AAF
:10159800C96822F47F6222F00F021A621A6A0A43AB
:1015A8001A62344A934250D0002380F83C301846DF
:1015B800BDE8F08303688F68DE68ACB204EB4402D0
:1015C8001E3A4FF0070E0EFA02FE26EA0E06DE60FD
:1015D800DE6807FA02F23243DA608BE702207047CE
:1015E8005A68022E22F480525A60CCD19A69C9688E
:1015F80022F47F6222F00F029A619A690A439A6183
:10160800CFE75A6822F480625A60B3E75A69C9681A
:1016180022F47F6222F00F025A615A690A435A6122
:10162800BFE79A6822F470229A609A6822F44012FE
:101638009A6098E7DA69C96822F47F6222F00F029B
:10164800DA61DA690A43DA61ABE7122D0AD00A4B8C
:101658009D4201D0112DA7D1084A536843F40003D5
:101668005360A1E7D2F8043343F48003C2F804338B
:101678009AE700BF0020014012000010002301403B
:1016880001000F0090F83C30012B024620D0114B8E
:10169800586820F01F0010B458605C680868204340
:1016A8005860586820F4404058605C684868204397
:1016B8005860586820F47060586058688968002439
:1016C80001435960204682F83C405DF8044B70475E
:1016D8000220704700230140704700BF88B103799A
:1016E80010B503F0FF0204463BB10023022101229A
:1016F800217118462361227110BD4271FFF7ECFF7A
:10170800F3E70120704700BF704700BF50B110B524
:10171800022304460371FFF7F7FF00202061607180
:10172800207110BD012070474379012B21D0036837
:10173800022230B402711A68012404FA01F52A431E
:1017480044711A601A6849B15203196813D4002306
:1017580001220271437130BC184670475507196859
:10176800F5D501F038013829F1D15A6822435A6079
:10177800EDE70220704701F46011B1F5601FE6D172
:101788005A6842F002025A60E1E700BF0246006868
:1017980010B40368012404FA01F123EA0103036089
:1017A800002014715DF8044B704700BF2DE9F0412B
:1017B8004479069E012C4DD096460D460222012101
:1017C80004464171027107683DBB3A688068DFF8DA
:1017D800B880DFF8B8C02A49C0F83C8042F480528B
:1017E800042EC0F840C0C1643A6042D0082E34D0FC
:1017F800002E41D02A463E6846F4005671463E60A7
:1018080004F0C6FD216801230A68AB401343002297
:101818000B6010466271BDE8F0813A68C068DFF875
:101828007080DFF870C01749C0F83C8042F08052E1
:10183800042EC0F840C0C1643A6017D0082E0FD0FB
:101848008EB100223E6846F0005671463E6004F0B4
:101858009FFDD7E70220BDE8F08107F11002CAE733
:1018680007F11C02EEE707F11402EBE707F1180293
:10187800E8E707F10C02BEE707F10802BBE700BF83
:1018880015190008D11A0008F118000805190008F0
:10189800B51A0008C51A0008036810B54FF480523D
:1018A800044618688A4020EA02021A601868012271
:1018B8008A4020EA02021A6031B9A06804F0AAFD41
:1018C80038B90123237110BDE06804F0A3FD002896
:1018D800F7D00423237110BD036809B1186B704752
:1018E800D86A7047704700BF10B5846B2046FFF771
:1018F800F9FF0123237110BD704700BF08B5806B45
:10190800FFF7FAFF08BD00BF704700BF10B5846B32
:10191800236943F0040323612046FFF7F5FF012301
:10192800237110BD704700BF03685A6B910410B54E
:10193800044615D45A6B920000D410BD04222271BB
:1019480022694FF0005142F00202226159631A687D
:1019580022F0805220461A60BDE8104000F0A4B87A
:101968000422027102694FF4005142F0010202613F
:1019780059631A6822F480521A60FFF7D3FF23686C
:10198800D8E700BF4379012B1BD0022370B4037141
:1019980004680AC9256840F6FE7696400B439340D2
:1019A80025EA06010B4323602168C023934021EAFE
:1019B80003030022012123600171427170BC1046AB
:1019C800704702231846704710B483B0006800249B
:1019D8000194019051B1019914310A440192019A7C
:1019E8000020136003B05DF8044B7047019908317B
:1019F8000A440192F3E700BF007970470069704715
:101A08000368DA6A186B42EA004070470346407977
:101A1800012815D030B402201D68187128684FF4C9
:101A28007C648C4042F080028A4020EA04010A4328
:101A3800012400212A6008461C71597130BC704786
:101A48000220704703464079012815D030B402209F
:101A58001D68187128684FF47C648C4042F040027D
:101A68008A4020EA04010A43012400212A6008462A
:101A78001C71597130BC70470220704710B404685B
:101A8800082904F120040CBF42EA032342EA034375
:101A9800002063505DF8044B704700BF704700BFDB
:101AA800704700BF704700BF704700BF10B5846B18
:101AB8002046FFF7F3FF0123237110BD08B5806BA3
:101AC800FFF7EEFF08BD00BF10B5846B236943F034
:101AD800040323612046FFF7E5FF0123237110BDAE
:101AE800074AD1684FF6FF030B4043F0BF6300F08D
:101AF800070043F4003343EA0023D360704700BF74
:101B080000ED00E0184BDB68C3F3022330B4C3F1E7
:101B18000705042D03F1040428BF0425062C17D952
:101B2800033B01249C40013C22400124AC40013C81
:101B380021409940002842EA01020CDB00F1604094
:101B480000F561401201D2B280F8002330BC704722
:101B580000221346E9E7054B00F00F001201034489
:101B6800D2B21A7630BC704700ED00E0FCEC00E021
:101B780000F01F0101234009024A8B4042F820303F
:101B8800704700BF00E100E04309203300F01F0068
:101B980001220249824041F82320704700E100E019
:101BA800BFF34F8F0549064BCA6802F4E06213433E
:101BB800CB60BFF34F8F00BFFDE700BF00ED00E033
:101BC8000400FA050138B0F1807F0ED2084B10B43A
:101BD800084C5860F02084F82300002207211046A2
:101BE8009A6019605DF8044B70470120704700BF88
:101BF80010E000E000ED00E0BFF35F8F044A054904
:101C0800536A002023F4803353624860704700BF52
:101C180000ED00E090ED00E0064B074A40F00100BF
:101C28005860536A43F480335362BFF34F8FBFF356
:101C38006F8F704790ED00E000ED00E02DE9F04176
:101C4800144D4378AB6003781BB9EB602B61BDE89A
:101C5800F0814368EB60C67A90F80C80427BC37BC6
:101C68000478817A90F80EC090F809E0077A300677
:101C780040EA0870204340EAC14141EA824141EA12
:101C88004C4242EA034242EA0E2343EA47032B61ED
:101C9800BDE8F08190ED00E0024BD868C0F3022067
:101CA800704700BF00ED00E0002870B423DB00F1AE
:101CB800604000F5614090F80043240901F00701F5
:101CC800C1F10706042E01F1040028BF04260628E6
:101CD8000ED9033901258D40013D25400120B04032
:101CE800CC40013804EA000111601D6070BC7047E7
:101CF80000252946F2E7034C00F00F000444247E37
:101D08002409DBE7FCEC00E04309403300F01F0046
:101D180001220249824041F82320704700E100E097
:101D280043094033044A52F8232000F01F0322FAE3
:101D380003F000F00100704700E100E04309603360
:101D480000F01F0001220249824041F82320704719
:101D580000E100E043098033044A52F8232000F0F0
:101D68001F0322FA03F000F00100704700E100E0D1
:101D7800044A136804280CBF43F0040323F0040347
:101D88001360704710E000E0704700BF08B5FFF728
:101D9800FBFF08BD134B14481A68002142F081026A
:101DA80030B41A6099601A68104C114D22F0A16283
:101DB80022F480321A6059605A6810435860C3F898
:101DC8008410D3F8842042F0005242F44052C3F801
:101DD80084201A6822F480221A60D960256030BCF9
:101DE800704700BF00380240103000240400002073
:101DF8000024F4002DE9F0430368DD0783B00446AE
:101E080030D5AB498A6802F00C02042A00F0F18050
:101E18008A6802F00C02082A00F0E7806368B3F5CC
:101E2800803F00F03F81002B00F00081B3F5A02F28
:101E38009F4B1A6800F0BB8122F480321A601A683E
:101E480022F480221A60FEF7F9FA994D064605E059
:101E5800FEF7F4FA801B642800F20E812B689A03BF
:101E6800F6D523689F072FD5914A916811F00C0F7A
:101E780000F09F80916801F00C01082900F095801E
:101E8800E3688B4D002B00F0FB802B6843F00103C7
:101E98002B60FEF7D3FA064605E0FEF7CFFA801B63
:101EA800022800F2E9802B68814A9807F5D5116865
:101EB800F82090FAA0F02369B0FA80F021F0F80138
:101EC80083400B43136023681A0759D45D0736D53E
:101ED800774B1A6CD00000F196801A6C42F0805251
:101EE8001A641B6C03F080530193019B0126714D0A
:101EF8002B68D90540F1B080A368012B00F0FB8066
:101F0800002B40F0D9806A4D2B6F23F001032B671B
:101F18002B6F23F004032B67FEF790FA41F2883702
:101F2800804606E0FEF78AFAC8EB0000B84200F2E5
:101F3800A3802B6F9807F5D4002E40F0E280A269A9
:101F4800D2B15B4B996801F00C01082938D0022AFC
:101F58001A6822F080721A6000F0D9801C46FEF7D9
:101F68006DFA054605E0FEF769FA401B022800F203
:101F7800838023689B01F6D4002003B0BDE8F0837A
:101F880063694B4D03B36B6F43F001036B67FEF757
:101F980055FA064604E0FEF751FA801B02286BD872
:101FA8006B6F9B07F7D5236890E7526856023FF599
:101FB80067AF3F4A1268950727D5E268012A24D0FF
:101FC800012003B0BDE8F0836B6F23F001036B675A
:101FD800FEF734FA064604E0FEF730FA801B0228C2
:101FE8004AD86B6F9F07F7D4DDE74A6850027FF540
:101FF80015AF2F4A126891037FF534AF6268002A43
:102008007FF430AFDCE7002671E7294DF820296816
:1020180090FAA0F02269B0FA80F021F0F80182402D
:102028000A432A601A077FF551AFA9E7204D2B68AC
:1020380023F480332B602B6823F480232B60FEF776
:10204800FDF9064604E0FEF7F9F9801B642813D869
:102058002B689B03F7D404E72B6843F480732B6049
:10206800FEF7ECF907462B68DA053FF545AFFEF7B2
:10207800E5F9C01B6428F6D9032003B0BDE8F08356
:102088002B6823F001032B60FEF7D8F9064604E01D
:10209800FEF7D4F9801B0228EED82B689907F7D4ED
:1020A800236811E7024A136843F480331360CAE6D1
:1020B8000038024000700040052B454B1A6F7ED057
:1020C80022F001021A671A6F22F004021A67FEF75B
:1020D800B5F93F4D804641F2883705E0FEF7AEF985
:1020E800C8EB0000B842C7D82B6F9B07F6D5002E67
:1020F8003FF425AF05E0364A136F43F00103136739
:10210800E5E7334A136C23F08053136417E71D4641
:10211800FEF794F9064604E0FEF790F9801B0228C2
:10212800AAD82B682A4A9901F6D447F6C07E9EFAA7
:10213800AEFE4FF44037BEFA8EFE97FAA7F74FF07F
:102148007065B7FA87F795FAA5F54FF0E049B5FA43
:1021580085F599FAA9F9A36A666AD4F82080D4F8B3
:102168001CC0E06A216BB9FA89F45B0806FA0EF61E
:10217800013B48EA0C0E4EEA0606BB40A840334332
:10218800A14003430B435360136843F0807313600B
:102198001446FEF753F9054605E0FEF74FF9401BD4
:1021A80002283FF669AF23689A01F6D5E4E642F4BF
:1021B80080221A601A6842F480321A6043E642F0BC
:1021C80004021A671A6F42F001021A677FE700BF1C
:1021D80000380240F0B5034689B00D461646224C39
:1021E80008B3236B214843F004032363236B03F0F4
:1021F800040302934FF4007E00230322022703A95D
:10220800069205930793DDF808C0CDF80CE0049713
:1022180001F0C2FAA36845EAC60223F078431A43DC
:10222800A26009B0F0BD226B114842F0010222639E
:10223800226B059302F0010201924FF4807E032283
:10224800022703A907930692DDF804C0CDF80CE035
:10225800049701F0A1FAA36823F0EC6346EA0302AD
:102268001543A56009B0F0BD0038024000080240DF
:1022780000000240024A136843F4002313607047C9
:1022880000380240024A136823F4002313607047A1
:10229800003802401C498B6803F00C03042B31D032
:1022A800082B2DD14A6830B44D6802F03F0447F638
:1022B800C0734A68690293FAA3F347F6C07000EA4C
:1022C80002004ABF1149124AB1FBF4F20E49B3FAAF
:1022D80083F320FA03F058BFB2FBF4F202FB00F3D9
:1022E8004FF44032486892FAA2F200F44030B2FA51
:1022F80082F2D0400130400030BCB3FBF0F07047B0
:1023080003487047014870470038024000127A00BD
:102318000024F400504A136803F00F038B422DE9A0
:10232800F0410CD2136823F00F030B4313601368BA
:1023380003F00F038B4202D00120BDE8F08103684F
:102348009A0706D5454D8268AC6824F0F00422430C
:10235800AA60DF0706460C4622D543683F4A012B90
:10236800126876D0022B6ED09107E5D53B4DAA684E
:1023780022F003021343AB60FEF760F87368012B89
:10238800074641F288384DD0022B05D155E0FEF7BB
:1023980055F8C01B404559D8AB6813F00C0FF6D15F
:1023A8002D4A136803F00F039C4209D2136823F0E7
:1023B8000F0323431360136803F00F03A342BBD139
:1023C80033685A0706D52548F268816821F4E05138
:1023D8000A4382601B0707D5204A3169936823F4B2
:1023E800604343EAC1039360FFF754FF1B4B014668
:1023F800F0229B6892FAA2F203F0F003B2FA82F29A
:10240800174D184CD3400F20EB5C21FA03F32360DF
:10241800FDF7E4FF0020BDE8F081FEF70FF8C01BD0
:10242800404513D8AB6803F00C03042BF5D1B7E78C
:10243800FEF704F8C01B404508D8AB6803F00C034E
:10244800082BF5D1ACE7900190D475E70320BDE8DF
:10245800F08195038AD46FE7003C024000380240BF
:10246800904E010804000020014B1868704700BF17
:1024780004000020084B4FF4E0529B6892FAA2F245
:1024880003F4E053B2FA82F204490548D3400068E5
:10249800CB5CD840704700BF00380240A04E01080E
:1024A80004000020084B4FF460429B6892FAA2F2A5
:1024B80003F46043B2FA82F204490548D340006845
:1024C800CB5CD840704700BF00380240A04E0108DE
:1024D800040000200F22374B02601A68510310B421
:1024E80058D54FF4A0234360324B32491B6813F090
:1024F800010318BF0123C360F8220B6892FAA2F205
:1025080003F0F803B2FA82F2D34003610B6F5A0763
:1025180048D505238360274B264A5B6F13F00103D8
:1025280018BF01234361234B1B68DB014CBF022307
:1025380001238361536803F48003C361536803F084
:102548003F030362546847F6C07191FAA1F147F658
:10255800C0732340B1FA81F1CB40436253684FF412
:10256800403191FAA1F103F4403303F580335B0065
:10257800B1FA81F1CB40836253684FF0706292FAEE
:10258800A2F203F07063B2FA82F2D340C3625DF83C
:10259800044B70471B6813F4803318BF4FF4803323
:1025A8004360A1E70B6F13F0010318BF0123836099
:1025B800B1E700BF003802400E4B0F2202609A6854
:1025C80002F0030242609A6802F0F00282609A68A0
:1025D80002F4E052C2609B6803F4604310B4DB0865
:1025E800054C036123685DF8044B03F00F030B608F
:1025F800704700BF00380240003C0240704700BFEF
:1026080008B5054BDB681B0604D5FFF7F7FF034B3E
:1026180080221A7008BD00BF003802400E38024000
:102628002DE9F04F036813F0010683B004460BD080
:102638009B4A916821F400019160406B9168B0FA5F
:1026480080F601439160760913F4002510D094496F
:10265800E56BD1F88C2022F440122A43B5F5801F8F
:10266800C1F88C2015BFB5FA85F500256D0901263E
:10267800DA020FD58A48216CD0F88C2022F4400267
:102688000A43B1F5800FC0F88C2000F0F0810029D2
:1026980008BF012513F0807F18BF01269F0600F1AF
:1026A8009F81DF060CD57E4AD2F88C1021F080710C
:1026B800C2F88C10D2F88C00A16B0143C2F88C10C0
:1026C800580408D57648626ED0F8901021F440314D
:1026D8000A43C0F89020190408D57148A26ED0F8B2
:1026E800901021F440210A43C0F89020DA0308D55D
:1026F8006B48E26ED0F8901021F440110A43C0F8FC
:1027080090209F0308D56648226FD0F8901021F4D6
:1027180040010A43C0F89020580608D56048626C0A
:10272800D0F8901021F003010A43C0F89020190650
:1027380008D55B48A26CD0F8901021F00C010A4330
:10274800C0F89020DA0508D55548E26CD0F890100A
:1027580021F030010A43C0F890209F0508D5504861
:10276800226DD0F8901021F0C0010A43C0F89020E3
:10277800580508D54A48626DD0F8901021F4407188
:102788000A43C0F89020190508D54548A26DD0F82D
:10279800901021F440610A43C0F89020DA0408D56B
:1027A8003F48E26DD0F8901021F440510A43C0F838
:1027B80090209F0408D53A48226ED0F8901021F452
:1027C80040410A43C0F89020580208D53448A26F07
:1027D800D0F8901021F080610A43C0F89020990247
:1027E8000CD52F49E06FD1F8902022F00062024307
:1027F800B0F1006FC1F8902008BF01255A0308D531
:102808002748626FD0F8901021F040710A43C0F851
:1028180090201F0209D52248D4F88020D0F89010C3
:1028280021F080510A43C0F89020580109D51C486E
:10283800D4F88420D0F8901021F000510A43C0F851
:102848009020190109D51648D4F88820D0F88C10A2
:1028580021F000710A43C0F88C20DA000BD4012E55
:1028680015D0B3F1007F12D0012D00F002810020B5
:1028780003B0BDE8F08F0A48D4F88C20D0F88C104B
:1028880021F080610A43012EC0F88C20E9D1044E62
:10289800336823F080633360FDF7D0FD074607E017
:1028A80000380240FDF7CAFDC01B642800F294807E
:1028B8003368CA4A1B01F5D42368DF0703D5616B67
:1028C800002900F04F811E0304D5E26BB2F5801F8A
:1028D80000F0A281D80204D5226CB2F5800F00F076
:1028E8009B81D9013DD5DFF8F4E24FF0706CDEF83A
:1028F80084009CFAACFB4FF0E046BBFA8BFBDEF899
:10290800841096FAA6F847F6C079B8FA88F899FAC2
:10291800A9F94FF4403AB9FA89F99AFAAAFABAFA2F
:102928008AFA9CFAACFCBCFA8CFC96FAA6F66768A4
:10293800B6FA86F601F0E042216900F0706001FA0B
:102948000AF120FA0BF007FA09F722FA08F20F4306
:1029580000FA0CF002FA06F147EA00020A43CEF840
:1029680084209A0127D547F6C07E9EFAAEFE4FF422
:10297800403CBEFA8EFE9CFAACFC4FF07066BCFA86
:102988008CFC96FAA6F64FF0E041B6FA86F691FA74
:10299800A1F127696068E268A368B1FA81F107FAD2
:1029A8000CF700FA0EF03843B2408B4002438B49D3
:1029B8001343C1F88430894E336843F08063336031
:1029C800FDF73CFD074633681B013FF54DAFFDF7AA
:1029D80035FDC01B6428F6D9032003B0BDE8F08F8D
:1029E8007E4B7F4F1A6C42F080521A641B6C03F0C6
:1029F80080530193019B3B6843F480733B60FDF770
:102A08001DFD804605E0FDF719FDC8EB00006428B0
:102A1800E2D83B68D805F6D5704B1A6F12F44071AE
:102A2800226B02F4407011D088420FD0196F1F6FCB
:102A380047F480371F671F6F21F4407127F48037F0
:102A48001F671967196FC90700F1D180B0F5407F7A
:102A580000F0288161498B6823F4F8138B605F4983
:102A68000B6FC2F30B021A430A67236819E60126A3
:102A780010E65A4D2B6823F080532B60FDF7DEFCDF
:102A8800064604E0FDF7DAFC801B6428A4D82B680E
:102A98009F00F7D421680D0300F1A480C80247D530
:102AA800236C002B44D14D484FF44036D0F8882091
:102AB80096FAA6FA4FF0E045BAFA8AFAD0F88830C2
:102AC80095FAA5FC47F6C078BCFA8CFC98FAA8F8E9
:102AD800B8FA88F896FAA6F64FF07069B6FA86FE44
:102AE80099FAA9F9B9FA89F995FAA5F7A66965696C
:102AF800B7FA87F702F4403222FA0AF203F0E04309
:102B080006FA09F605FA08F502FA0EF223FA0CF3AA
:102B180035432A43BB401343C0F88830D0F88C3083
:102B2800A26A23F4F853013A43EA0223C0F88C302E
:102B38008A0204D5E36FB3F1006F00F0BE80274C22
:102B4800236843F080532360FDF778FC054605E0D1
:102B5800FDF774FC401B64283FF63EAF23689B00DA
:102B6800F6D584E6D2F884004FF4403797FAA7FBED
:102B78004FF07066BBFA8BFBD2F8841096FAA6F871
:102B880047F6C079B8FA88F899FAA9F9B9FA89F92B
:102B980097FAA7F7B7FA87FC96FAA6F64FF0E04A35
:102BA800B6FA86FE9AFAAAFAA7686668BAFA8AFA9C
:102BB80000F4403020FA0BF001F0706107FA0AF7D0
:102BC80006FA09F600FA0CF021FA08F13E4301FA78
:102BD8000EF130430143C2F8841074E60038024015
:102BE80000700040E36B002B3FF45DAF56E71F46D3
:102BF800FDF724FC41F28838814606E0FDF71EFC0B
:102C0800C9EB000040453FF6E7AE3B6F9B07F5D5A3
:102C1800226B02F4407019E745484FF44037D0F86A
:102C2800841097FAA7FB4FF0E046BBFA8BFBD0F86D
:102C3800842096FAA6F847F6C079B8FA88F899FA7F
:102C4800A9F9B9FA89F997FAA7F74FF0706AB7FAAC
:102C580087FC9AFAAAFABAFA8AFA96FAA6FEE768F6
:102C68006668BEFA8EFE01F4403121FA0BF102F0DB
:102C7800E04207FA0AF706FA09F601FA0CF122FA15
:102C880008F23E43314302FA0EF20A43C0F88420A8
:102C9800D0F88C20616A22F01F0201390A43C0F87B
:102CA8008C201EE62248836822F0704123F4F81332
:102CB80021F440710B438360D1E61D4D4FF07060E5
:102CC800D5F8882090FAA0F84FF0E041B8FA88F8D3
:102CD800D5F8883091FAA1F747F6C076B7FA87F7A2
:102CE80096FAA6F64FF4403EB6FA86F69EFAAEFE7F
:102CF800BEFA8EFE90FAA0F0B0FA80F091FAA1F137
:102D0800D4F820C06469B1FA81F102F0706222FA45
:102D180008F203F0E0430CFA0EFCB4408240FB409A
:102D28004CEA04008B4002431343C5F8883006E799
:102D3800003802407F4A804B0260F0B4D3F88440E8
:102D480047F6C07595FAA5F12A462240B1FA81F1F5
:102D5800CA404260D3F884104FF4403292FAA2F489
:102D68001140B4FA84F4E1400161D3F884104FF0C3
:102D7800706494FAA4F62140B6FA86F6F140C16070
:102D8800D3F884604FF0E04191FAA1F70E40B7FA0A
:102D980087F7FE408660D3F8887095FAA5F547F660
:102DA800C0763E40B5FA85F5EE404661D3F88850C6
:102DB80092FAA2F61540B6FA86F6F5400562D3F8FF
:102DC800885094FAA4F405F07065B4FA84F425FAEE
:102DD80004F48461D3F8884091FAA1F104F0E04446
:102DE800B1FA81F124FA01F1C161D3F88C101F24E2
:102DF80094FAA4F401F01F01B4FA84F4E1404162AA
:102E0800D3F88C104FF4F85494FAA4F401F4F85160
:102E1800B4FA84F4E1408162D3F88C1092FAA2F2F9
:102E280001F44031B2FA82F221FA02F2C262D3F816
:102E38008C2002F44012C263D3F88C2002F44002C2
:102E480002649A6802F400024263D3F8902002F404
:102E580040324266D3F8902002F440228266D3F8CA
:102E6800902002F44012C266D3F8902002F4400287
:102E78000267D3F8902002F003024264D3F890204E
:102E880002F00C028264D3F8902002F03002C2648F
:102E9800D3F8902002F0C0020265D3F8902002F423
:102EA80040724265D3F8902002F440628265D3F8FC
:102EB800902002F44052C265D3F8902002F44042B8
:102EC8000266D3F8902002F040724267D3F890204F
:102ED80002F080628267D3F8902002F00062C26735
:102EE800D3F8902002F08052C0F88020D3F89020C8
:102EF80002F00052C0F88420D3F88C2002F000724F
:102F0800C0F88820D3F88C2002F08062C0F88C20AA
:102F180099681A6F01F4F81102F440720A430263C7
:102F2800D3F88C3013F0807318BF4FF0807383632D
:102F3800F0BC7047F1FFFF1C00380240B0F5002FCD
:102F480019D0B0F5801F25D1314AD2F88C3003F45E
:102F58004003B3F5800F41D01ED9B3F5000F54D00C
:102F6800B3F5400F16D152682A4B2B4812F4800F44
:102F780008BF18467047264AD2F88C3003F440132D
:102F8800B3F5801F2AD007D9B3F5001F3DD0B3F59C
:102F9800401FE8D000207047002BFBD153681C4924
:102FA80013F4800F53680CBF1A4A1B4AD1F88800E3
:102FB80003F03F03B2FBF3F3D1F88820D1F88C106B
:102FC800C2F38812C1F30421C0F3036002FB03F3C8
:102FD8004A1CB3FBF0F3B3FBF2F0704753680C499B
:102FE80013F4800F53680CBF0A4A0B4AD1F88400C7
:102FF80003F03F03B2FBF3F3D1F88420D1F88C102F
:10300800C2F3881201F01F01DEE70448704700BFD1
:10301800003802400024F40000127A000080BB004F
:10302800184BDB689B0704D5174A936943F02003C4
:103038009361144BDB68D80604D5134A936943F0AF
:10304800100393610F4BDB68990604D50E4A936908
:1030580043F0080393610B4BDB685A0604D50A4A10
:10306800936943F004039361064BDB681B0604D5A0
:10307800054A936943F002039361024BF222DA6036
:10308800704700BF003C0240900A0020F0B5364C63
:10309800257D012D1BD01F46344B1D6945F08075D9
:1030A8001D611D6916464FF0F30E45F000750322A9
:1030B8004FF0010C1D6184F814C0C3F80CE02270B5
:1030C800216190424ED8DFE800F017283B04022027
:1030D800F0BD264B1A6922F440721A611A6942F44B
:1030E80040721A611A6942F001021A61C1E9006767
:1030F800BFF34F8F0020F0BD1C4B1A6922F44072B9
:103108001A611A691A611869F6B240F0010018616B
:103118000E70BFF34F8F0020F0BD144B1A6922F4D4
:1031280040721A611A6942F480721A611869B6B25B
:1031380040F0010018610E80BFF34F8F0020F0BDF2
:103148000A4B1A6922F440721A611A6942F4007231
:103158001A611A6942F001021A610E60BFF34F8FBB
:103168000020F0BD0020F0BD900A0020003C024085
:10317800704700BF704700BF494B1A6922F001022F
:1031880070B51A611A6922F002021A611A6922F0EE
:10319800F8021A611A6922F4004222F004021A6144
:1031A800D86810F0010421D001223E4DDA602B7856
:1031B800DBB2022B31D0032B5AD093423CD0384B90
:1031C800DB6813F0F20F4FF0000415D12B78354A65
:1031D80003F0FF014BB9324B11751A6922F0807266
:1031E8001A611A6922F000721A6170BD2D4D2C4BBC
:1031F800DB6813F0F20FE9D02B782A4ADBB2022BF6
:1032080011D0032B3AD0012B26D0FFF709FF204617
:10321800FFF7B0FF00232B70D8E700200024FFF74A
:10322800A7FF2C70E3E70024FFF7FAFE2046FFF71C
:10323800A1FF00232B70C9E76B68013B6B606E68C8
:103248002EB3E868FFF794FFEC680134EC60297A44
:10325800204600F0EBF9CAE7D4684FF0FF33D3609B
:10326800FFF7DEFE2046FFF785FF00232B70ADE752
:1032780028690024FFF77CFF2C70B8E71469FFF772
:10328800CFFE2046FFF776FF00232B709EE74FF016
:10329800FF30E8600446FFF76BFF2E70A7E700BF1A
:1032A800003C0240900A0020054B1A69002A01DB05
:1032B800012070470349044A596000205A6070474A
:1032C800003C024023016745AB89EFCD034A1369EF
:1032D80043F0004313610020704700BF003C0240E8
:1032E800054B5A69D20705D50449054A996000205B
:1032F8009A60704701207047003C02403B2A190839
:103308007F6E5D4C034A536943F00103536100200B
:10331800704700BF003C0240014B9869704700BFEE
:10332800900A0020134B70B5002204469A61FDF7FD
:1033380085F8114D064601E0621C0FD1EB680E4A74
:10334800DB03F9D4D36813F0F2000FD1D36813F07C
:1033580001031ABF0123D360184670BD24B1FDF7DD
:103368006DF8801B8442E9D2032070BDFFF758FE38
:10337800012070BD900A0020003C02402DE9F8436E
:10338800364C257D012D02D10220BDE8F883064682
:1033980099464CF2503001230F4690462375FFF7AB
:1033A800C1FF08BB032E16D8DFE806F04602342218
:1033B8002B4B1A6922F440721A611A6942F480721E
:1033C8001A6119691FFA88F841F001011961A7F813
:1033D8000080BFF34F8F4CF25030FFF7A3FF204A15
:1033E800136923F00103136100232375BDE8F883F3
:1033F8001B4B1A6922F440721A611A6942F440722E
:103408001A611A6942F001021A61C7E90089BFF31B
:103418004F8FE0E7124B1A6922F440721A611A6959
:1034280042F400721A611A6942F001021A61C7F87F
:103438000080BFF34F8FCEE7094B1A6922F4407220
:103448001A611A691A6119695FFA88F841F001016D
:10345800196187F80080BFF34F8FBCE7900A0020FE
:10346800003C0240044A536943F0020353614CF2A2
:103478005030FFF757BF00BF003C02400F4B1A699E
:1034880022F440721A6103291A6910D002290CBF6C
:1034980042F4004242F004021A61084A136943F4F4
:1034A800803343EA00201061BFF34F8F704742F426
:1034B800004242F004021A61EFE700BF003C0240FC
:1034C800F8B5424D2B7D012B29D003680446DA0755
:1034D8004FF0010028750DD56368A66883424CF249
:1034E800503068D0FFF71EFF18B9394B5A69164398
:1034F8005E6123689F0734D45E0712D4190707D585
:103508003349207C4A6922F00C0202434A610020B8
:10351800DA0633D49B0640D400232B75F8BD02206D
:10352800F8BD4CF250306669FFF7FCFEA8B9284F89
:1035380006F0004306F0F00106F0804219437B696B
:10354800114306F000520A4306F0805623F07043F8
:10355800164323F0F0031E437E6123681907D7D56D
:10356800CEE74CF25030E668FFF7DCFE10B9194B95
:10357800F6B21E7023685E07C0D5D2E74CF2503011
:10358800A669FFF7CFFE28B9114A93691B0C1B04E3
:103598003343936123689B06BED54CF25030E469EF
:1035A800FFF7C0FE0028B7D1094A93699BB243EAE6
:1035B80004439361B0E7FFF7B5FE002899D1044AA8
:1035C800536923EA06035361236893E7900A0020AE
:1035D800003C0240153C02403F22104B02605969F2
:1035E8000F4B104A0B4083601378DBB2AA2B04D030
:1035F8001378CC2B0CBFCC235523084AC3605169E0
:10360800094B0B404361536903F00C030361936951
:103618009BB2836193691B0CC3617047003C0240F5
:103628000000FF0F153C0240F00000F039B10129FD
:1036380026D002290CBF4FF400714FF44071124B91
:103648001A6922F440721A611A69114319611A69D8
:103658000B2822F0F8021A6188BF0430F82292FA87
:10366800A2F21969B2FA82F241F0020190400843CD
:1036780018611A6942F480321A61BFF34F8F70479C
:103688004FF48071DBE700BF003C02402DE9F843AE
:10369800274F3B7D012B02D10220BDE8F88301238F
:1036A80004464CF2503088463B75FFF73BFE064611
:1036B80038BB4FF0FF33C8F800302368012B25D002
:1036C800A568E3682B449D421BD2DFF8689005E0AB
:1036D800A268E36801351344AB4212D92846217C1D
:1036E800FFF7A4FF4CF25030FFF71CFED9F810305A
:1036F80023F0FA03C9F810300028E9D00646C8F8C4
:103708000050002330463B75BDE8F883207C616893
:10371800FFF7B4FE4CF25030FFF704FE054A136978
:1037280023F4004323F0040306461361E9E700BFCE
:10373800900A0020003C024038B5154C227D012A31
:103748001CD0144A116941F0807111611169034656
:1037580041F00071F3201161D06019680122914293
:1037680022750DD09868DD68197C22706560E0606C
:1037780021729868FFF75AFF002038BD022038BD33
:103788000222187C59682270FFF778FE002038BDA5
:10379800900A0020003C02402DE9F04FDFF858C2A3
:1037A800DFF858E20F688A4E85B0002303E0013342
:1037B800102B00F0A48001229A4002EA07049442E8
:1037C800F5D14D6825F0100ABAF1020F00F09A8081
:1037D8004FEA43090322D0F800B002FA09F2D243B3
:1037E80005F0030802EA0B0B08FA09F80AF1FF3A98
:1037F8004BEA0808BAF1010F0192C0F8008040F2C4
:10380800AB80D0F80C80019A02EA080A8A6802FAAA
:1038180009F84AEA0802C260EA00C8D5DEF844207E
:1038280042F48042CEF84420DEF8442023F0030915
:1038380009F1804902F4804209F59C39039203F0AA
:10384800030A039AD9F808804FEA8A0A0F2202FA73
:103858000AF2604528EA020800F097805D4A904223
:1038680000F095805C4A904200F095805B4A904257
:1038780000F095805A4A904200F09580594A90424B
:1038880000F09580584A904200F09580574A90423F
:1038980000F09580564A904200F09580554A904233
:1038A8000CBF09220A2202FA0AF242EA0802C9F8FF
:1038B800082032686FEA040815F4803F14BF2243D9
:1038C80008EA02023260726815F4003F14BF22430E
:1038D80008EA02027260B26815F4801F14BF22431E
:1038E80008EA0202B260F268AD0203F1010354BFB4
:1038F80008EA02041443102BF4607FF45CAF05B0AF
:10390800BDE8F08F4FEAD30900EB890903F00708F7
:10391800D9F820204FEA88084FF00F0A0AFA08FA67
:1039280022EA0A0A0A6902FA08F24AEA0202C9F80D
:1039380020204FEA43090322D0F800A002FA09F236
:10394800D24305F0030802EA0A0A08FA09F84AEA23
:1039580008080192C0F80080D0F80880019A02EAAD
:10396800080ACA6802FA09F84AEA0808C0F808808A
:10397800D0F804A0C5F300182AEA040A08FA03F8E4
:103988004AEA0808C0F804803BE700228DE70122D4
:1039980002FA0AF289E7022202FA0AF285E703220A
:1039A80002FA0AF281E7042202FA0AF27DE7052206
:1039B80002FA0AF279E7062202FA0AF275E7072202
:1039C80002FA0AF271E7082202FA0AF26DE700BF6A
:1039D800003C01400004024000080240000C024084
:1039E800001002400014024000180240001C02406F
:1039F800002002400024024000000240003802403B
:103A08002DE9F04FDFF850C1DFF85081DFF8509111
:103A18008B46002302E00133102B71D0012404FAF5
:103A280003F101EA0B028A42F5D14FF0030E03FAC3
:103A380004F105680EFA01F6F64323FA0EF1354053
:103A480000EB8101056003F00707D1F820A00F25DE
:103A5800BF0005FA07F72AEA07070F6281683140B5
:103A680081604168D24311404160C76823F0030177
:103A780001F180413E4001F59C31C66003EA0E0722
:103A88008E68BF00BD40404506EA05063DD0484562
:103A980039D0294CA0423AD0284CA0423AD0284CE0
:103AA800A0423AD0274CA0423AD0274CA0423AD064
:103AB800264CA0423AD0264CA0423AD0254CA042EF
:103AC80020D00A24BC40A642A5D18C6824EA05056A
:103AD8008D60DCF800101140CCF80010DCF8041000
:103AE8001140CCF80410DCF808101140CCF808108C
:103AF800DCF80C1001330A40102BCCF80C208DD1C7
:103B0800BDE8F08F0924BC40DDE70024DBE7022490
:103B1800BC40D8E70EFA07F4D5E70424BC40D2E746
:103B28000524BC40CFE70624BC40CCE70724BC40B2
:103B3800C9E70824BC40C6E700080240000C024060
:103B4800001002400014024000180240001C02400D
:103B58000020024000240240003C014000000240D6
:103B6800000402400369194214BF01200020704775
:103B780002B909048161704743695940416170473E
:103B880082B04FF480330193019B0B430193019B57
:103B9800C361C161019BC361C3690193C06980F4BA
:103BA8008030C0F3004002B0704700BF704700BFCC
:103BB800044A5169084208B502D050610CF0F4FF7C
:103BC80008BD00BF003C0140704700BF704700BF00
:103BD800184A436B93421BD0174A934218D011F0EE
:103BE800040F0CBF0023B823CA0748BF43F0F203F1
:103BF8008A0701F0120148BF43F0F403122908BFF5
:103C080043F0200301680A6813430B6000207047E3
:103C180011F0040F01F011020CBF0023B82301F0CA
:103C28001201112A08BF43F090031229EAD143F088
:103C38006003E7E7BD5F0008195D000811F00103A4
:103C480007D090F8413003F02803282B0CBF4223FB
:103C5800F2238A0709D590F8412002F02802282A81
:103C68000CBF43F0440343F0F4034A0701F0110288
:103C780048BF43F0B80301F01201112A08BF43F00E
:103C88009003122901680A6808BF43F0600322EA1A
:103C980003030B6000207047F8B507460C4616462C
:103CA8001D46396801E06B1C09D188692040001B5A
:103CB800B0FA80F040098642F5D00020F8BD2DB159
:103CC800FCF7BCFB069BC01A8542EAD200232022DF
:103CD80087F8412087F8403087F842300320F8BD44
:103CE80010B5846B2268136823F480431360638DD6
:103CF8009BB283B1238D608D616A194483B2FF2B17
:103D080098BF638D61628CBFFF239BB223852832E5
:103D1800A06B02F03DFB20461221BDE8104057E79A
:103D280010B5846B21680B6823F400430B60638D26
:103D38009BB283B1238D608D626A1A4483B2FF2BD4
:103D480098BF638D62628CBFFF239BB223852431A9
:103D5800E06B02F01DFB20461221BDE8104037E75A
:103D680070B505460C461646286801E0631C22D14A
:103D780083699906FAD510222023C261C361836939
:103D88009A0744BF002383628369DB0703D48369EE
:103D980043F00103836142680F4B04241340202140
:103DA800002243606C64012085F8411085F84020AA
:103DB80085F8422070BD24B1FCF740FB801B84428B
:103DC800D2D20023202285F8412085F8403085F89A
:103DD8004230032070BD00BF00E800FE70B5054604
:103DE8000C46164608E09A69910616D42CB3FCF7DF
:103DF80025FB801B844220D32B689A69520727D45D
:103E08009A69D006EFD5284621463246FFF7A8FF23
:103E180000BB2B689A699106E8D52024DC615868B4
:103E28000D4900220140596001206A6485F840204C
:103E380085F8414085F8422070BD6B6C2022134301
:103E480000216B6485F8401085F84120032070BD7F
:103E5800002070BD012070BD00E800FE70B504466A
:103E68000D46164601E0691C11D123689A6992072C
:103E78000BD49B69D806F6D5204629463246FFF76B
:103E88006FFF0028EFD0012070BD002070BD25B164
:103E9800FCF7D4FA801B8542E7D2636C202100220C
:103EA8000B43636484F8402084F84110032084F8AD
:103EB800422070BD2DE9F0410668214C77683C40EE
:103EC80044F08074C1F3090144F4005482B00C43F7
:103ED800D9B244EA0144904674600899099A0546A3
:103EE8001F46FFF7BBFF58B9012F2B6810D04FEAC8
:103EF80018229A6228460899099AFFF7AFFFC8B1B5
:103F08006B6C042B0CBF0120032002B0BDE8F081CC
:103F18005FFA88F29A62099B009328468021002262
:103F2800089BFFF7B9FE002814BF0320002002B049
:103F3800BDE8F0812A685FFA88F39362EBE700BF77
:103F4800009800FCF0B506681B4C77683C4044F4C8
:103F58000054C1F3090183B021431F46DBB241EA93
:103F6800034114467160099A08990546FFF776FFE0
:103F780050B9012F2B680FD0220A9A622846089957
:103F8800099AFFF76BFF30B16B6C042B0CBF012053
:103F9800032003B0F0BD2B68E4B29C62099B009338
:103FA800284640210022089BFFF776FE002814BF10
:103FB8000320002003B0F0BD009800FC70B5054652
:103FC8000C4616462B689A6992061ED49B69D90638
:103FD80012D424B1FCF732FA801B8442F2D26B6C03
:103FE800202100220B436B6485F8402085F841109E
:103FF800032085F8422070BD284621463246FFF747
:10400800AFFE0028E5D0012070BD002070BD00BFC4
:10401800704700BF002850D0F8B590F841300446EA
:1040280003F0FF02002B3FD02368E068242284F8C5
:1040380041201968626821F0010122F0706219605C
:104048001A619A68012822F400429A60A26830D066
:1040580042F4044202289A6004BF4FF400625A6096
:104068005868E569266A04F1100186C940F00070B5
:1040780040F400405860D8680A4342EA072246EAFA
:10408800050120F40040D860DA6019601968002240
:1040980041F00101202519601046626484F84150FE
:1040A800226384F84220F8BD80F84020FFF7B0FF73
:1040B800BAE742F400429A60D2E70120704700BF95
:1040C800704700BFB0B10268242310B580F84130B2
:1040D800136823F0010304461360FFF7F1FF002380
:1040E800636484F8403084F841301846236384F8C8
:1040F800423010BD012070472DE9F0430D4690F87D
:104108004110202983B0044603D0022003B0BDE843
:10411800F083984690F84030012BF6D04FF0010913
:1041280080F840901746FCF789F94A460646009001
:104138004FF4004120461923FFF7AEFD08B10320D4
:10414800E4E71023212284F8412084F84230606497
:10415800A4F82A80638D67629BB2FF2B60635AD9EB
:1041680022683F4B51680B4043F0FF73C5F30905C4
:1041780043F490332B43FF2121855360ADB2638D07
:104188000A999BB232462046002B57D0FFF766FEAD
:1041980000283BD1636A2168228D581C60621B7815
:1041A8008B62638D013A013B9BB292B26385228593
:1041B800002AE4D1638D9BB2002BE0D00A9B0096C5
:1041C80020468021FFF768FD254AFF27134600286F
:1041D800B5D1618D89B2B9420AD923682785596852
:1041E8000A4042F0FF7242F480322A435A60C6E71E
:1041F8002168628D486892B2034043F00073D0B2E0
:1042080043EA00432B4322854B60B8E7636C042BD9
:1042180095D101207AE72168628D114B48680340E7
:1042280092B243F00073D0B243F40053C5F30905CA
:1042380043EA00432B4322854B609FE7FFF7BEFE0E
:104248000028E3D12368074A2021D9615D682A4004
:104258005A6084F8411084F8400084F8420055E719
:10426800009800FC00E800FE2DE9F0430D4690F8A8
:104278004110202983B0044603D0022003B0BDE8D2
:10428800F083984690F84030012BF6D04FF00109A2
:1042980080F840901746FCF7D1F84A460646009049
:1042A8004FF4004120461923FFF7F6FC08B103201C
:1042B800E4E71023222284F8412084F84230606425
:1042C800A4F82A80638D67629BB2FF2B60635AD97A
:1042D80022683F4B51680B4043F0FF73C5F3090553
:1042E80043F492332B43FF2121855360ADB2638D94
:1042F8000A999BB232462046002B57D0FFF76EFD35
:1043080000283BD1636A2268591C526A61621A709C
:10431800228D638D013A013B92B29BB2228563855F
:10432800002AE4D1638D9BB2002BE0D00A9B009653
:1043380020468021FFF7B0FC254AFF2713460028B6
:10434800B5D1618D89B2B9420AD9236827855968E0
:104358000A4042F0FF7242F480322A435A60C6E7AC
:104368002168628D486892B2034043F00073D0B26E
:1043780043EA00432B4322854B60B8E7636C042B68
:1043880095D101207AE72168628D114B4868034076
:1043980092B243F00073D0B243F41053C5F3090549
:1043A80043EA00432B4322854B609FE7FFF706FE55
:1043B8000028E3D12368074A2021D9615D682A4093
:1043C8005A6084F8411084F8400084F8420055E7A8
:1043D800009800FC00E800FEF0B590F84140E4B217
:1043E800202C85B0054602D0022005B0F0BD00297A
:1043F80039D0002A37D01E4690F84030012BF3D030
:10440800012380F8403003920291FCF717F8D5F8A1
:1044180000E0039A029907462123002085F84130DD
:1044280085F8424068646A85DEF80430696223F4DE
:10443800004368630246CEF80430284600970821F6
:104448003346FFF729FC2A6878B1536843F40043E0
:1044580053600320C9E72A68536843F40043536054
:104468006B6C042B34D10120BFE7EB680824022BC6
:10447800D4612FD0009728464FF48031002233466C
:10448800FFF70AFC90B12A68DFE7284631463A462A
:10449800FFF7E4FC0028DED16B6A2A68591C6962C0
:1044A8001B7893626B8D013B9BB26B856B8D9BB2C6
:1044B800002BEAD13A4628463146FFF77FFD2A68A5
:1044C800B0B1536843F4004353606B6C042B0DD0B8
:1044D80003208AE702460097284621463346FFF71D
:1044E800DBFB0028CFD12B68DC61C3E700236B64BA
:1044F8002024D46133460122284600974FF4004116
:10450800FFF7CAFB2A68536843F400435360002846
:10451800DED185F8414085F8400085F8420064E71F
:104528002DE9F04190F84140E4B2202C84B00546D2
:1045380003D0022004B0BDE8F08189B382B31E46DF
:1045480090F84030012BF4D04FF0010880F84080FB
:1045580003920291FBF772FFD5F800E0039A0299E3
:1045680007462223002085F8413085F842406864D8
:104578006A85DEF80430696223F400436863024602
:10458800CEF804302846009708213346FFF784FB0D
:1045980040B12A68536843F4004353600320C9E7D5
:1045A8000120C7E72B680821D961424628460097B1
:1045B8004FF480313346FFF76FFB0028E9D10FE055
:1045C800284631463A46FFF709FCE8B96B6A2A687B
:1045D800591C526A69621A706B8D013B9BB26B85DC
:1045E8006B8D9BB2002BEBD1284631463A46FFF73C
:1045F800E5FC00B32A68536843F4004353606B6CCE
:10460800042BCDD0032095E72B685A6842F400426A
:104618005A609A69520708D56A6A5B6A511C6962CE
:1046280013706B8D013B9BB26B856B6C202B0CBFA1
:10463800032001207EE72A682024D4613346012222
:10464800284600974FF40041FFF726FB2A68536875
:1046580043F4004353600028D4D185F8414085F8DD
:10466800400085F8420065E7F8B5044690F8410037
:10467800202801D00220F8BD2668B06910F4004057
:10468800F8D194F84050012DF4D04FF0210E1027A6
:10469800194D84F841E084F8427060646385E562EE
:1046A800638D164862629BB20122FF2B84F840207A
:1046B800606319D9FF2323854FF47F024FF0807080
:1046C80075680F4B2B4043F40053C1F3090119439C
:1046D8000143114300257160204684F840500121B0
:1046E800FFF776FA2846F8BD638D9BB2DAB22385C8
:1046F80012044FF00070E3E70000FFFF515E00086E
:10470800009800FCF8B5044690F84100202801D034
:104718000220F8BD2668B06910F40040F8D194F87A
:104728004050012DF4D04FF0220E1027194D84F877
:1047380041E084F8427060646385E562638D1648E1
:1047480062629BB20122FF2B84F84020606319D972
:10475800FF2323854FF47F024FF0807075680F4B5D
:104768002B4043F41053C1F309011943014311438A
:1047780000257160204684F840500221FFF728FA8E
:104788002846F8BD638D9BB2DAB2238512044FF038
:104798000070E3E70000FFFF515E0008009800FC8E
:1047A800F8B590F84130DBB2202B01D00220F8BDDB
:1047B80090F84050012DF9D000250668DFF838E060
:1047C800212780F8417080F8423045647368094FAA
:1047D80023F4004373604285438D80F84050416262
:1047E8000385C0F82CE047630521FFF7F1F9284657
:1047F800F8BD00BF415B00080000FFFFF8B590F866
:104808004130DBB2202B01D00220F8BD90F8405097
:10481800012DF9D000250668DFF838E0222780F856
:10482800417080F8423045647368094F23F40043AF
:1048380073604285438D80F8405041620385C0F81B
:104848002CE047630621FFF7C3F92846F8BD00BFEF
:10485800415B00080000FFFFF8B590F84150202D9B
:10486800044601D00220F8BDD0F800E00F46DEF87B
:10487800181011F40041F5D190F84050012DF1D0F5
:10488800324D42624FF0210C102680F841C080F86A
:10489800426041644385C562438D2D4D45639BB29B
:1048A8000121FF2B80F8401032D9FF2303854FF0F8
:1048B8008075A06BDFF8A8C02649C0F84CC0002658
:1048C800C1630664114606650EF1280201F060FD19
:1048D8002368214A5868218D0240C7F3090742F42A
:1048E8000052C8B23A4342EA00422A435A60638DF2
:1048F80084F840605B1A9BB2638520461121FFF75C
:1049080067F92268136843F4804330461360F8BDA2
:10491800458DADB20585A5B9DEF804200E4B0F4EC6
:104928004663134043F0007343F40053C7F3090789
:104938001F43CEF8047080F84050FFF749F9284625
:10494800F8BD2B464FF00075B3E700BF0000FFFF2E
:10495800BD5F0008E93C0008009800FC515E0008B3
:10496800A1600008F8B50F4690F8411020290446C8
:1049780001D00220F8BDD0F800E0DEF8181011F4DC
:104988000041F6D190F84050012DF2D0314D4262ED
:104998004FF0220C102680F841C080F84260416434
:1049A8004385C562438D2C4D45639BB20121FF2B86
:1049B80080F8401031D9FF2303854FF08075E06BF4
:1049C800DFF8A4C02549C0F84CC00026C1630664BE
:1049D8000EF12401066501F0DBFC2368204A5868C3
:1049E800218D0240C7F3090742F41052C8B23A4376
:1049F80042EA00422A435A60638D84F840605B1A99
:104A08009BB2638520461121FFF7E2F822681368FC
:104A180043F4004330461360F8BD458DADB20585BB
:104A2800A5B9DEF804200E4B0E4E4663134043F042
:104A3800007343F41053C7F309071F43CEF80470FB
:104A480080F84050FFF7C4F82846F8BD2B464FF0D1
:104A58000075B4E70000FFFFBD5F0008293D0008AE
:104A6800009800FC515E0008A160000890F84130F1
:104A7800DBB2202B2DE9F041044602D00220BDE82C
:104A8800F08100293DD0002A3BD094F84050012DF8
:104A9800F4D00025212684F8416084F8423065640A
:104AA8006285638DA66B2268DFF860C0DFF860E07E
:104AB800DFF86080144F61629BB20120238584F87F
:104AC8004000C4F834C0C4F82C803046C6F83CE036
:104AD80035643565F764283201F05AFC226853685A
:104AE80023F400435360204684F840500421FFF724
:104AF8006FF82268136843F4804328461360BDE8C2
:104B0800F0810120BDE8F081A1600008195D00086E
:104B1800D13B00080000FFFF2DE9F84390F8413031
:104B2800DBB2202B044602D00220BDE8F88300291E
:104B380040D0002A3ED090F840000128F4D000254B
:104B4800222084F8410084F8423065646285638DD0
:104B5800E66B2768DFF868C0DFF868E0DFF8688090
:104B6800164861629BB24FF001092385606384F89F
:104B78004090C4F82C800A46C6F83CC0C6F84CE001
:104B880007F1240130463564356501F001FC2268DF
:104B9800536823F400435360204684F840500421AE
:104BA800FFF716F82268136843F400432846136099
:104BB800BDE8F8830120BDE8F88300BF195D00084F
:104BC800D53B0008A16000080000FFFF2DE9F04F69
:104BD80090F8414083B0202CBDF8346003D0022007
:104BE80003B0BDE8F08F0C9CB4B3AEB390F840406E
:104BF800012CF4D0012580F84050984691460F4684
:104C08000446FBF71BFC2A46009082464FF40041FD
:104C180020461923FFF740F8834608B10320DFE751
:104C28000C9B63620E9BC4F834B0212040218DE8B0
:104C380008044A4684F84100434684F84210204656
:104C4800C4F844B039466685FFF734F930B1636C6F
:104C580084F840B0042BE1D10120C1E7638D9BB2F9
:104C6800FF2B5BD92268404B51680B4043F0FF7320
:104C7800C7F3090143F480330B43FF2020855360B9
:104C88008DB203E0638D9BB2002B58D020460E995D
:104C98005246FFF7E3F800283CD1636A2168228D69
:104CA800581C60621B788B62638D013A013B9BB292
:104CB80092B263852285002AE4D1638D9BB2002BD2
:104CC800E0D00E9BCDF800A020468021FEF7E4FF3F
:104CD800254AFF2613460028A0D1618D89B2B1422A
:104CE8000AD92368268559680A4042F0FF7242F4BF
:104CF80080322A435A60C5E72168628D486892B2BB
:104D0800034043F00073D0B243EA00432B432285AB
:104D18004B60B7E7636C042B80D19DE72068628DF8
:104D2800114B416892B20B40D5B243F00073C7F300
:104D3800090143EA05430B4322854360A0E7524635
:104D480020460E99FFF73AF90028E3D12368074A6D
:104D58002021D9615D682A405A6084F8411084F89E
:104D6800400084F842003BE7009800FC00E800FEA1
:104D78002DE9F04F90F8414083B0202CBDF8346005
:104D880003D0022003B0BDE8F08F0C9C2CB326B3EF
:104D980090F84040012CF4D0012580F84050984606
:104DA80091460F460446FBF749FB2A460090824687
:104DB8004FF4004120461923FEF76EFF834670B179
:104DC8000320DFE7524620460E99FFF7F7F8002840
:104DD80000F09380636C042BF2D10120D2E70C9B86
:104DE80063620E9BC4F834B0222040218DE8080489
:104DF8004A4684F84100434684F842102046C4F8E5
:104E080044B039466685FFF79DF828B1636C84F88D
:104E180040B0042BD4D1E0E7638D9BB2FF2B59D966
:104E280022683D4B51680B4043F0FF73C7F30907F5
:104E380043F492333B43FF212185536003E0638DA4
:104E48009BB2002BBED0CDF800A020460421002242
:104E58000E9BFEF721FF0028B2D1636A2268591C15
:104E6800526A61621A70228D638D013A013B92B2D7
:104E78009BB222856385002AE1D1638D9BB2002B0A
:104E8800DDD00E9BCDF800A020468021FEF704FF60
:104E9800214AFF251346002892D1618D89B2A94283
:104EA8000AD92368258559680A4042F0FF7242F4FE
:104EB80080323A435A60C2E72168628D486892B2EC
:104EC800034043F00073D0B243EA00433B432285DA
:104ED8004B60B4E72168628D0F4B4868034092B27B
:104EE80043F00073D0B243F41053C7F3090743EA01
:104EF80000433B4322854B60A5E72368074A2021EE
:104F0800D9615D682A405A6084F8411084F84000ED
:104F180084F8420036E700BF009800FC00E800FE75
:104F28002DE9F04390F8414083B0202CBDF82C5077
:104F380004D00224204603B0BDE8F0830A9C002C6C
:104F480045D0002D43D00468A46914F40048F0D17A
:104F580090F84040012CECD01F460123814680F890
:104F6800403014460E46FBF769FA21214022274BB0
:104F780089F8411089F84220C9F84480A9F82A50D4
:104F8800C9F82C30B9F82A30214A0A99C9F82410EE
:104F98009BB2FF2BC9F834201BD9FF23A9F828306E
:104FA8004FF0807519210190224600913B464846F2
:104FB8003146FEF77FFF044690B1D9F84430042B00
:104FC8004FF0000389F8403001D00324B2E70124F0
:104FD800B0E7B9F82A30A9F828304FF00075E1E7B2
:104FE800D9F800200B4B516899F828000B4043EA88
:104FF8000043C6F309010B432B435360484689F825
:1050080040400121FEF7E4FD94E700BF0000FFFFE8
:10501800515E0008009800FC2DE9F04390F84140EB
:1050280083B0202CBDF82C5004D00224204603B0B5
:10503800BDE8F0830A9C002C45D0002D43D00468BD
:10504800A46914F40048F0D190F84040012CECD049
:105058001F460123814680F8403014460E46FBF770
:10506800EDF922214022284B89F8411089F8422085
:10507800C9F84480A9F82A50C9F82C30B9F82A3060
:10508800224A0A99C9F824109BB2FF2BC9F8342088
:105098001BD9FF23A9F828304FF0807519210190FA
:1050A800224600913B4648463146FEF74BFF0446F0
:1050B80090B1D9F84430042B4FF0000389F8403000
:1050C80001D00324B2E70124B0E7B9F82A30A9F8DF
:1050D80028304FF00075E1E7D9F800200C4B5168F3
:1050E80099F828000B4043F41053C6F3090143EA2A
:1050F80000430B432B435360484689F84040022144
:10510800FEF766FD92E700BF0000FFFF515E000852
:10511800009800FC2DE9F04390F8414083B0202C22
:10512800BDF82C5004D00224204603B0BDE8F0831B
:105138000A9C002C45D0002D43D00468A46914F4BF
:105148000048F0D190F84040012CECD01F460123D4
:10515800814680F8403014460E46FBF76FF921214E
:105168004022364B89F8411089F84220C9F844801A
:10517800A9F82A50C9F82C30B9F82A30304A0A99C7
:10518800C9F824109BB2FF2BC9F834201BD9FF2380
:10519800A9F828304FF08075192101902246009116
:1051A8003B4648463146FEF785FE044690B1D9F89D
:1051B8004430042B4FF0000389F8403001D0032419
:1051C800B2E70124B0E7B9F82A30A9F828304FF03F
:1051D8000075E1E7D9F80020D9F8380019491A4BC9
:1051E800C163C36428320A99B9F828300464046595
:1051F80001F0CEF8D9F80070B9F828007B68134A96
:105208001A40C3B242EA0342C6F3090142EA010363
:105218002B437B60B9F82A3089F840401B1A9BB2AF
:10522800A9F82A3048461121FEF7D2FCD9F8002007
:10523800136843F48043136076E700BF0000FFFF64
:10524800BD5F0008E93C0008A1600008009800FC68
:105258002DE9F04390F8414083B0202CBDF82C5044
:1052680004D00224204603B0BDE8F0830A9C002C39
:1052780045D0002D43D00468A46914F40048F0D147
:1052880090F84040012CECD01F460123814680F85D
:10529800403014460E46FBF7D1F822214022354B08
:1052A80089F8411089F84220C9F84480A9F82A50A1
:1052B800C9F82C30B9F82A302F4A0A99C9F82410AD
:1052C8009BB2FF2BC9F834201BD9FF23A9F828303B
:1052D8004FF0807519210190224600913B464846BF
:1052E8003146FEF72FFE044690B1D9F84430042B1E
:1052F8004FF0000389F8403001D00324B2E70124BD
:10530800B0E7B9F82A30A9F828304FF00075E1E77E
:10531800D9F80010D9F83C00184A194B0464046500
:10532800C263C3640A9AB9F82830243101F030F80E
:10533800D9F80020134B5168B9F828000B40C7B2C0
:1053480043F41053C6F3090143EA07430B432B43C5
:105358005360B9F82A3089F840401B1A9BB2A9F863
:105368002A30136843F40043484613601121FEF7BE
:105378002FFC77E70000FFFFBD5F0008293D00080C
:10538800A1600008009800FC2DE9F04784B00024D3
:10539800039490F84140202C03D0022004B0BDE8CB
:1053A800F0870468A56915F4004EF6D190F84050CE
:1053B800012DF2D0C1F309079A46164647F0007945
:1053C8002422012380F84120054649F4005980F839
:1053D8004030C0F844E0EB68012B0CBF4B4647F463
:1053E80020536360FBF72AF88046296809E08C6936
:1053F800E30609D495F84130A02B05D0BAF1FF3F58
:105408001ED18C69A206F2D58A6912F0100239D031
:10541800CDF800802846202100225346FEF73CFCA8
:10542800E8B92B6810222024DA61DC6103994A1C50
:10543800B142039215D0039A96420AD91C46CAE78C
:10544800BAF1000F05D0FAF7F9FFC8EB0000824562
:10545800CBD22022002385F8412085F84030032054
:105468009CE7596841F4804159600246CDF80080B4
:10547800284621465346FEF70FFC0028EFD12B683B
:10548800DC61D8E7CDF80080534628462021FEF796
:1054980003FC0028E3D12A682023D36185F8413032
:1054A80085F840007AE700BFF8B5044690F8410057
:1054B800202801D00220F8BD94F840000128F9D036
:1054C80000202126102584F8416084F84250606449
:1054D8006385069BE362638D184862629BB2012272
:1054E800FF2B84F84020606321D8638DE06A9BB26B
:1054F800DAB2238512042668256B114B7768C1F34D
:1055080009013B401943112D41EA000141EA02011A
:1055180014BF4FF40053002319430025716020463F
:1055280084F840500121FEF753FB2846F8BDFF23BD
:1055380023854FF47F024FF08070DCE7515E00084E
:10554800009800FCF8B5044690F84100202801D0E6
:105558000220F8BD94F840000128F9D00020222646
:10556800102584F8416084F8425060646385069B86
:10557800E362638D184862629BB20122FF2B84F8B4
:105588004020606321D8638DE06A9BB2DAB223853C
:1055980012042668256B114B7768C1F309013B405B
:1055A8001943122D41EA000141EA020114BF4FF4E8
:1055B80010530023194300257160204684F8405099
:1055C8000221FEF705FB2846F8BDFF2323854FF48B
:1055D8007F024FF08070DCE7515E0008009800FC05
:1055E800F0B50D4690F8411001F02801282983B044
:1055F800044602D0012003B0F0BD002DFAD0002AE5
:10560800F8D005218DE80C00FEF718FB94F840103F
:1056180001292CD094F8411001202A2984F840004F
:105628009DE80C0025D0216820260020292784F831
:10563800417084F8426060644868114E20F400406C
:1056480048606285628DE3628B696562DB0348BFEF
:1056580008234FF0000522856663204648BFCB61CA
:1056680084F840500521FEF7B3FA2846C3E7022024
:10567800C1E720460221FEF7E1FA9DE80C00D2E7D7
:10568800415B0008F0B50D4690F8411001F0280183
:10569800282983B0044602D0012003B0F0BD002DB4
:1056A800FAD0002AF8D006218DE80C00FEF7C6FAD9
:1056B80094F8401001292CD094F8410001212928A0
:1056C80084F840109DE80C0025D021682026002091
:1056D8002A2784F8417084F8426060644868114E53
:1056E80020F4004048606285628DE3628B696562E0
:1056F800DB0358BF08234FF0000522856663204668
:1057080058BFCB6184F840500621FEF761FA28465D
:10571800C3E70220C1E72046FEF790FA9DE80C0097
:10572800D3E700BF415B000890F84120202A08B564
:1057380001D0022008BD054A4263282180F84110A3
:105748000421FEF745FA002008BD00BF415B0008B0
:1057580090F84120282A01D00220704710B590F80F
:10576800412090F8421002F003020A43002420214D
:105778000263446380F84110042180F84240FEF738
:105788005DFA204610BD00BF90F84220102A01D0D3
:105798000120704790F84020012A01D1022070476B
:1057A80070B5012604460D4680F840600221FEF7D8
:1057B80045FA31462046FEF741FA22680B49602334
:1057C80084F841305368194041F0007343F4A03322
:1057D800C5F30901194300255160204684F840505B
:1057E8001221FEF7F5F9284670BD00BF009800FCAD
:1057F800036810B4446B99691A681CB123465DF8B4
:10580800044B18475DF8044B704700BF704700BF52
:10581800704700BF38B5002580F8425090F84130F5
:10582800212B04464FF020020DD0122380F841208E
:10583800456302210363FEF701FA84F840502046CD
:10584800FFF7E6FF38BD112380F8412045630121A9
:105858000363FEF7F3F984F840502046FFF7D6FFBC
:1058680038BD00BF704700BF704700BF38B500257E
:1058780080F8425090F84130292B044612D090F815
:1058880041302A2B00D038BD2822222380F841201D
:1058980002210363FEF7D2F984F840502046FFF74F
:1058A800E3FF38BD2822212380F84120012103632A
:1058B800FEF7C4F984F840502046FFF7D3FF38BDFF
:1058C800704700BF704700BF164B10B52022C36257
:1058D80000230363436380F8412080F842304B077C
:1058E800044611D5436A0268591C526A41621A700B
:1058F800038D4BB1428D013A92B24285426C013B15
:1059080042F004020385426420460721FEF796F917
:10591800226810210023D161204684F84030FFF727
:10592800D1FF10BD0000FFFF704700BF704700BFE8
:10593800704700BF704700BF00233A4A70B580F82F
:105948004230C2624385436C1943416490F8413048
:10595800282B04462CD090F84130292B28D090F8D9
:1059680041302A2B24D00721FEF768F994F84130FA
:105978002268602B1CBF202384F841300023236356
:105988006363136813F4804322D01368A16B264E17
:1059980023F480430025136008460E6584F84050C0
:1059A80000F080FD08B3A06BBDE87040036D184798
:1059B80003212046FEF742F91C4A6263002328218E
:1059C800226884F841102363136813F48043DCD100
:1059D800116811F4004109D194F84130602B18D0B6
:1059E80084F840102046FFF7A3FF70BD1168E56BEF
:1059F8000D4E21F40041116028462E6584F8403090
:105A080000F050FD0028F0D0E06BBDE87040036D59
:105A18001847202384F8401084F841302046FFF7C7
:105A280089FF70BD0000FFFF29610008415B000885
:105A3800036870B5082204462026DE610D46DA6147
:105A48000721FEF7FBF82368394A596841F40041F9
:105A5800596059680A405A609A69920744BF0022FF
:105A68009A629A69D60703D49A6942F001029A6148
:105A78001A6850042CD41A68110429D4628D92B281
:105A88001AB1626C42F0040262646A0706D5626A5F
:105A98005B6A511C61621370238D73BB00232363FF
:105AA80084F84230626C6363002A31D1E36A214989
:105AB8008B4218D194F8413084F84020222B4FF0C3
:105AC800200384F8413020462FD0FFF7CBFE70BD6D
